:020000040800F2
:10000000A81700202D440008791A00087B1A000860
:100010007D1A00087F1A0008811A000800000000FD
:10002000000000000000000000000000831A00082B
:10003000851A000800000000871A0008891A0008C5
:10004000474400084744000847440008DD320008E0
:100050004744000847440008474400084744000854
:100060004744000847440008474400084744000844
:100070004744000847440008474400084744000834
:100080004744000847440008474400084744000824
:100090004744000847440008474400084744000814
:1000A0004744000847440008474400084744000804
:1000B00047440008F3360008474400084744000856
:1000C00047440008474400084744000847440008E4
:1000D00047440008AD420008353500084744000891
:1000E00047440008474400084744000847440008C4
:1000F00047440008474400084744000847440008B4
:1001000047440008474400084744000847440008A3
:100110004744000847440008474400084744000893
:100120004744000847440008474400084744000883
:1001300000F002F800F090F80AA090E8000C824469
:100140008344AAF10107DA4501D100F085F8AFF246
:10015000090EBAE80F0013F0010F18BFFB1A43F0A5
:100160000103184710AA000030AA0000103A24BF6B
:1001700078C878C1FAD8520724BF30C830C144BF0C
:1001800004680C607047000000230024002500264E
:10019000103A28BF78C1FBD8520728BF30C148BFEA
:1001A0000B6070476E2906F0C681702905F0BB8789
:1001B000662907F0BF82652907F0BC82672907F02E
:1001C000B9826129AFF3008003681B0A28BF41F0A0
:1001D0008001692905F02C87642905F02987752994
:1001E00005F026876F2906F0BE82782905F08787FB
:1001F000E92906F05982E42906F05682F52906F02D
:100200005382EF2906F0BB82F82905F08687036840
:10021000DB0928BF41F08001632906F0C8817329FA
:1002200006F0CD81E32906F01385F32906F0188541
:10023000002070471FB506F069FD04000020002172
:1002400007F062FA401C60600020002107F046FAC7
:10025000E0601FBD10B510BD06F02AFD1146FFF786
:10026000E9FF00F0F4F806F007FE03B4FFF7F2FF31
:1002700003BC03F0C5FF0000FEB501F0BEFC18246E
:100280000025FEA08DE83100234680220A2114209B
:1002900002F048F801F074FCFB4E7E21304604F079
:1002A00085F8FF21304604F081F80621304604F03D
:1002B0007DF87115F54804F0F2F903F0FBFEF4A0A7
:1002C0008DE83100182380220A21142002F02AF838
:1002D00001F056FCBDE8FE404FF4FA7003F072BF27
:1002E0003EB501F08AFC10240025ECA08DE8310019
:1002F0002346802214211E2002F014F801F040FC55
:100300006101E24804F0CDF903F0FFFEE6A08DE8BC
:1003100031001023802214211E2002F003F8002255
:100320003021382002F05DF801F02AFCBDE83E40A3
:100330004FF4FA7003F046BF30B5DE4C8BB0A078B6
:10034000DD4D697888422ED0A0786870A078009042
:1003500063782278D9A101A805F004FE00211823B2
:1003600001AA084601F037FDE0790090A379A28840
:10037000D6A101A805F0F6FD0C2301AA1A214420FC
:1003800001F029FD207A05F1240151F82020D3A1A4
:1003900001A805F0E7FD0C2301AA19466E2001F023
:1003A0001AFD012028700BB030BD70B5CD4E502223
:1003B000CB49304603F04DF8C94CCB4D2068A842DC
:1003C00014D05021204606F020F8C8A1201D256039
:1003D00005F0B6FFC7A104F10B0005F0B1FF5022F4
:1003E0002146304603F041F8C4A000E0C8A0BDE8B3
:1003F000704005F0ABBD3EB5002410212246CAA0D6
:100400008DE807000B4680220C21102001F08AFFA6
:1004100001F0B6FB4FF4C87506E0641CE4B20A2C88
:1004200007D8284603F0CEFEC34803F0ADFD0028F0
:10043000F3D1A148801C03F077FD10B1BFA005F0F7
:1004400085FDBDE83E40A648503003F057BB0EB5D1
:1004500003F08AFE4FF4A06004F008F84FF4165041
:1004600003F0D8FEB8A005F071FD02F0CDF901F05F
:10047000DDFC03F01BFE02F097FA01F0BEFBFFF774
:10048000BAFF02F0BFFE002488B101F0B6FB0C20D9
:10049000B1A1CDE900101423802202940D2101F0B6
:1004A00041FF01F06DFB40F6B83003F08BFEFFF723
:1004B0007CFF01F0A2FB00223021382001F091FFE7
:1004C0007D4DFFF739FF2878012809D12C703F2393
:1004D000102218210020009401F0CEFB01F050FB07
:1004E000012003F06FFEECE7F0B57D4E002493B0E1
:1004F00096F84F00002830D001F07FFB641C0B2CD5
:1005000021D196F84F00002448B3102796A0CDE9DA
:10051000000700253B46802239460295284601F017
:1005200001FF96F84F2095A103A805F01BFD03A835
:10053000CDE900071023802220210295142001F02C
:10054000F1FE01F01DFB012003F03CFE02F094F9E6
:100550000428D3D101F051FB012013B0F0BD01F00C
:100560004CFBFAE7F8B500240C2503232246202192
:100570004E20009501F0F4FB01F002FB4FF6FF76F0
:1005800002F07AF9C0B2112838D2DFE800F037095A
:100590000909131515152024242437303330410060
:1005A000411E09292AD2632C28D204EB840100EBD6
:1005B00041001AE03046F8BD411E09291ED2632CC5
:1005C0001CD204EB840100EB4100401E0DE00A2028
:1005D000B4FBF0F412E0411E09290FD2632C0DD2B6
:1005E00004EB840100EB4100801E84B206E04FF46E
:1005F0007F40F8BD04EB840006EA40040323224652
:1006000020214E20009501F0ABFB01F0B9FAB7E7CD
:100610002046F8BD2DE9F04F5CA089B007C803ABB8
:10062000002483E8070059A006AB07C883E8070049
:1006300027462646254601F0E0FAFFF755FF002839
:100640001AD101F0DAFA102153A2CDE90021A04617
:100650000B46CDF8088080224146052001F062FE5D
:100660004FF00C094EA2CDE90029802210214B4603
:10067000CDF808800A209BE01AE10000BDE2CBF82B
:10068000D6D02E2E2E00000000380140000C014074
:10069000D2D1BDE2CBF8A3A100000000CBF8B6A8F0
:1006A000D6D0A3A100000000D2D1CBF8B6A8A3A158
:1006B00000000000560500200000002025303264B4
:1006C0003A253032643A25303264000025303464F3
:1006D0002D253032642D2530326400002573000052
:1006E000D800002000F0000869B601003132333430
:1006F000353600003131323233330000B3F5CABC35
:10070000BBAFC5E4D6C3B3C9B9A60D0A000000004B
:10071000BBB6D3ADCAB9D3C3D6C7C4DCC3DCC2EB46
:10072000CBF80D0A00000000D6C7C4DCC3DCC2EB66
:10073000CBF8CFB5CDB30000B40000204552523AFB
:100740003031300D0A000000B4AEBFDAB9A6C4DC07
:10075000D5FDB3A30D0A0000525443204352592043
:100760004552522100000000C3DCC2EBB4EDCEF3D1
:10077000B4CECAFDB9FDB6E000000000C7EB2530DD
:100780003264C3EBBAF3D6D8CAD4000020202020AC
:100790002020202020200000C3DCC2EBA3BA0000F0
:1007A00020312020203220202033202042636B0083
:1007B00001F0B8FDFCA2CDE900290C23CDF808809A
:1007C00080221C210A2001F0ADFDFBA2CDE9002909
:1007D0000C23CDF80880802228210A2001F0A2FDF8
:1007E000F9A2CDE900290C23CDF80880802234211C
:1007F0000A2001F097FD01F0C3F90DF118094FF03F
:100800002A0A0DF10C0802F037F8411CFBD0F2491E
:1008100001224FF0000B0A70112833D2DFE800F0FC
:10082000320909090B12121219222222242C4D2CF2
:100830005300303007E001F0E0F94FF4FA7003F0B4
:10084000C1FC35E02F3008F8040009F804A0641C4E
:1008500019E0002C17DD2020641E08F8040009F8B8
:10086000040010E02E30EEE70FB100270BE0012767
:1008700009E00855185502E020204B464146641E09
:10088000F7D200244AB14FF00C03D7B103AA0021DC
:10089000352001F0A0FA01F073F90BF101000A21F3
:1008A000B0FBF1F201FB12000028ACD101F0A5F978
:1008B0004FF0FF3009B0BDE8F08F302108F8041088
:1008C000C3E706AAE3E7C54C00204146A3190A5C2A
:1008D0001B799A4204D1761CB6B2062E04D000E0F1
:1008E0000026401C0A28F1DB002063190A5CDB7A31
:1008F0009A4204D16D1CADB2062D04D000E0002553
:10090000401C0A28F1DB062E0DD00020062D0CD04D
:10091000002108430BD0FFF7AFFC01F06EF9002077
:1009200084F84E00C6E70120F0E70121F1E794F8D2
:100930004E00401CC0B284F84E00052802D91E208B
:1009400084F84F0001F059F9A54C7E21204603F0B0
:100950002DFDFF21204603F029FD0621204603F04E
:1009600025FD0321204603F021FD0021204603F050
:100970001DFD0021204603F019FD0221204603F051
:1009800015FDEF21204603F011FD1021002295A056
:100990008DE807000B46802230212D2001F0C2FC9B
:1009A00001F0EEF802F01DF840F2DC5003F00AFC12
:1009B0007CE70EB503F033F80C22CDE900020021EC
:1009C0001346029180223021002001F0ABFC01F09F
:1009D000D7F84FF47A7003F0F5FB0C2384A2302192
:1009E000002001F0F8F9BDE80E4001F0C9B82DE98A
:1009F000FE4F002501F001F9DFF8E0B14FF0100AD9
:100A00004FF00109DFF8FC8100260C270BF1500B99
:100A100001F032FF10287DD0052D3FD2DFE805F030
:100A2000033F6AA2C30078A1CDE9001A641C00212B
:100A3000E4B2102380220296084601F073FC77A0EE
:100A4000CDE900070C23802218210296002001F036
:100A500069FC76A0CDE900070C23802234210296A0
:100A6000682001F05FFC01F08BF802F0B8FE78BB63
:100A7000C8F8A091012002F0CCFEC8F8A06138BBF4
:100A80006CA0CDE900070C238022182102960020DB
:100A900001F048FC01F074F80024012544E169A04C
:100AA000CDE90007641CE4B20C23802218210296D1
:100AB000002001F037FC01F063F802F090FE38B935
:100AC000C8F8A091022002F0A4FEC8F8A06110B1FD
:100AD000FFF76FFF28E15FA0CDE900070C2380221C
:100AE00018210296002001F01DFC01F049F80024B5
:100AF000022519E15AA0CDE900070C238022182114
:100B00000296002001F00EFC01F03AF802F09FFE80
:100B1000050000E00FE117D057A0CDE900070C2336
:100B2000802218210296002001F0FCFB01F028F839
:100B30002846FFF73EFF002401F05FF800254FF440
:100B4000966003F03FFBEFE050A0CDE900070C23D7
:100B5000802218210296002001F0E4FB01F010F839
:100B60000325ECE74EA0CDE900070C2380221821D5
:100B70000296002001F0D6FB01F002F802F0C3FE5D
:100B800018B10025FFF715FFD9E74AA0CDE9000706
:100B90000C23802218210296002001F0C3FB00F0F4
:100BA000EFFF0425CBE78FE02034202020352020E4
:100BB0002036202044656C0020372020203820205B
:100BC0002039202044697300436C7220203020209B
:100BD000436C7220204F4B0000000020D800002002
:100BE00000380140C3DCC2EBB4EDCEF3A3A100009A
:100BF00020202020202020202020202020202020F5
:100C000020202000008021423D3D3D20C2BCC8EB99
:100C1000D6B8CEC6203D3D3D00000000C7EBB0B4C5
:100C2000D6B8CEC6A3A1202000000000B7B5BBD81F
:100C300000000000D6B8CEC6D5FDB3A3A3A12020E6
:100C400020200000C7EBD4D9B0B4D2BBB4CED6B804
:100C5000CEC60000D6B8CEC6D5FDB3A3A3A1000072
:100C6000B6D4B1C8C1BDB4CED6B8CEC620202020DF
:100C70002020202000000000B6D4B1C8CAA7B0DCF4
:100C800020C7EBD6D8C2BC2020202000C1BDB4CEE6
:100C9000D6B8CEC6D2BBD1F92020202020202000FB
:100CA000C9FAB3C9D6B8CEC6C4A3B0E52E2E2E203D
:100CB00020202000C9FAB3C9D6B8CEC6C4A3B0E577
:100CC000B3C9B9A621000000FEA0CDE900070C239E
:100CD000802218210296002001F024FBFEA0CDE91D
:100CE00000070C238022342102967A2001F01AFB9F
:100CF000FAA0CDE900070C238022342102960020BF
:100D000001F010FB00F03CFF5D46FFF72BFC0146B5
:100D100028888842F9D9022002F00FFE78B1002518
:100D2000FFF747FE00F069FF4FF4C87003F04AFA7E
:100D30000A2C7FF46DAEBDE8FE4F00F05EBF00F000
:100D40006EFFEBA1CDE9001A1023802202961E212E
:100D5000002001F0E7FAE94803F0E6F8E8A0CDE961
:100D600000070C23802234210296422001F0DAFA97
:100D7000E2490097891EBBF8000049880323421A04
:100D800034215A2000F0ECFF00F0FAFE40F2DC5073
:100D900003F018FACFE770B5C4B0FFF7A5FB4FF02A
:100DA000FF34E0BB02F01BFD064600F038FF1020C8
:100DB000D5A1CDE9001000250346802202952946E1
:100DC000284601F0AFFA00F0DBFE46BB012002F03E
:100DD00020FD40B1FFF7EDFD00F0D2FE4FF4FA60C8
:100DE00003F0F0F91AE0CC4843AB0021028801205F
:100DF00003F059F8C8B1C84A503A92F84E10491C4D
:100E0000C9B282F84E10052902D91E2182F84F106E
:100E1000FFF7CFFD00F0B4FE01F0E3FD00E001E0DC
:100E200000F0EBFE204644B070BD00F0F8FE182440
:100E3000AFF2B8708DE83100234680220A211420D9
:100E400001F070FA00F09CFE4FF40071B34803F01B
:100E500026FCB34E7E21304603F0A8FAFF2130462F
:100E600003F0A4FA0621304603F0A0FA032130462D
:100E700003F09CFA0021304603F098FA0021304636
:100E800003F094FA0121304603F090FAEF21304646
:100E900003F08CFA03F00EF9AFF60C008DE8310088
:100EA000182380220A21142001F03CFA00F068FE89
:100EB00001221221702001F094FABDF80C2199A1B1
:100EC00003A805F04FF80C2603ACCDE900463346E5
:100ED000802234210020029501F024FABDF80E2171
:100EE00095A103A805F03EF8CDE900460C23802229
:100EF00034216020029501F015FA00F041FE4FF414
:100F0000E16003F05FF900F078FE00208BE73EB56A
:100F100000F073FE102089A1CDE9001000250346E2
:100F2000802202952946284601F0FCF90C2488A06D
:100F30008DE83100234680221021002001F0F2F9D3
:100F400087A08DE831000C2380223421002001F09D
:100F5000E9F900F015FE322003F034F9FFF702FB47
:100F6000A0F57F41FF391DD0B0F57F4F1ED0012184
:100F700002F00CFDE8B1FFF71CFD00F001FE5F4838
:100F800002F0D2FF5D4964480094891E00884988B8
:100F90000323421A30216E2000F0E2FE4FF49660E7
:100FA00003F010F9BDE83E4000F027BE02F01DFD41
:100FB000E0E700F022FE70A08DE831000C238022D3
:100FC0001421002001F0AEF94DA08DE831000C2372
:100FD00080223021502001F0A5F900F0D1FDCCE7AE
:100FE0002DE9F04F00268BB0344637463546AFF634
:100FF0006000D0E90010CDE90310AFF66C00D0E935
:101000000010CDE9081000F0F8FDB0464FF00C09D3
:10101000AFF67402CDE900294B46CDF80880802256
:1010200010210A2001F07EF9AFF28442CDE90029B7
:101030000C23CDF8088080221C210A2001F072F9CF
:10104000AFF28C42CDE900290C23CDF80880802234
:1010500028210A2001F066F94BA2CDE900290C23D2
:10106000CDF80880802234210A2001F05BF94FF08E
:10107000100949A2CDE900294B46CDF8088080220D
:101080000021052001F04EF9012245A105A804F038
:1010900069FF05AACDE900291023CDF80880802238
:1010A0003021052001F03EF900F06AFDDFF84CB078
:1010B0000DF10C080DF120094FF02A0AABF1020BDB
:1010C00070E00000C7EBCAE4C8EBB4A2B4E6494440
:1010D0003A2020202020202020000000C9BEB3FD9F
:1010E00020C7E5BFD5202020202020C8B7C8CF00CA
:1010F000C2BCD6B8CEC6B3C9B9A621000200002032
:10110000CAA3D3E000000000D5FDD4DABCECB2E203
:10111000D6B8CEC60000000028010020000C014017
:101120000038014049443A25642020202020C6A5EB
:10113000C5E4B7D6000000003A2564003D3D3D20DF
:10114000C9BEB3FDD6B8CEC6203D3D3D000000006F
:10115000CAE4C8EBD6B8CEC64944A3BA0000000022
:10116000B7B5BBD820C7E5BFD520202020C8B7C859
:10117000CFC9BEB3FD000000C9BEB3FDD6B8CEC610
:10118000B3C9B9A6A3A10000436C7220203020206F
:1011900043686720204F4B00D0C2C3DCC2EB000085
:1011A00025643A0001F068FB411C4CD00121002568
:1011B0008BF80010112846D2DFE800F04509090934
:1011C0000B1010101720202022274A3C6C003030D2
:1011D00005E000F012FD4FF4FA707FE02F3008F8C0
:1011E000040009F804A0641C36E0002C34DD202043
:1011F000641E08F8040009F804002DE02E30EEE724
:101200000FB1002728E0012726E0721CAFF2700121
:1012100005A804F0A7FE1021002205A88DE807000C
:101220000B4680223021052001F07CF80EB100260B
:1012300000E00126202041464A46641E02D308559C
:101240001055FAE700249BF80000012804D00DE0B7
:10125000302108F80410C4E74FF00C03C7B103AA0B
:101260000021462000F0B7FD00F08AFC6D1CADB2F5
:101270000A20B5FBF0F100FB115000287FF420AFED
:1012800000F0BBFC01208BF800000BB0BDE8F08F34
:1012900008AAE5E7FD4CFE48039916B3C4F80B1005
:1012A000BDF81010A4F80F1061745022214602F00E
:1012B000DCF8211DF7A004F049FE00F09EFC10218F
:1012C0000022F6A08DE807000B4680223021002086
:1012D00001F028F800F054FC4FF47A7002F072FF2D
:1012E000D3E76160BDF810102181A1725022E74957
:1012F00002F0BBF8211DEDA0DDE72DE9F04F8FB026
:10130000002004460D90EB48B0F804A090F806B019
:10131000C679077A90F8009090F80180857800F0FF
:101320006CFC0C210022E4A08DE807000B46802213
:101330002621622000F0F6FF0C210022DFA08DE8BC
:1013400007000B4680223421002000F0EBFF00F064
:1013500017FC0D98401C80B20D9001F08DFA0C28FE
:101360000AD000210D9A1E2A08D00022114307D06E
:1013700000F043FC0FB089E70121F3E70122F5E714
:101380000D2828D1072C26D2DFE804F0040A101318
:10139000161C2200B9F1000F5BD0A9F1010029E071
:1013A000B8F1000F55D0A8F101002BE025B36D1E58
:1013B0002EE00FB37F1E30E0BAF1000F49D0AAF142
:1013C000010032E0BBF1000F43D0ABF1010034E08B
:1013D00096B1761E37E00E2837D1072C35D2DFE8DC
:1013E00004F0040C14191E272F00B9F1170F30D286
:1013F00009F1010000F0FF092BE0B8F13B0F28D202
:1014000008F1010000F0FF0823E03B2D21D26D1C04
:10141000EDB21EE0072F1CD27F1CFFB219E040F690
:1014200033018A4515D20AF101001FFA80FA10E053
:10143000BBF10C0F0DD20BF1010000F0FF0B08E027
:101440001F2E06D2761CF6B203E00F2809D0102812
:101450007DD00D980521B0FBF1F201FB120038B1EF
:101460001DE0072C00DA641C072CF2D10024F0E701
:10147000072C12D2DFE804F0040A1B21272D3300C9
:101480001823AFF644020021084604E01823AFF603
:1014900050020021242000F09EFC00F071FB0D980A
:1014A0000521B0FBF1F201FB1200F0B14AE0182374
:1014B000AFF6740200214820EDE70C23AFF6C0021E
:1014C00019466E20E7E70C23AFF65C021A21442090
:1014D000E1E70C23AFF698021A216220DBE70C2328
:1014E000AFF6A4021A217420D5E7002043464A46ED
:1014F000AFF638610D90009503A804F033FD00218C
:10150000182303AA084600F066FC5B465246AFF675
:10151000446103A8009604F025FD0C2303AA1A21B8
:10152000442000F058FC6A4861A150F8272003A825
:1015300004F018FD0C2303AA19466E2000F04BFCA2
:1015400000F01EFB012002F03DFE02E7FFE7CDE9BF
:1015500000854B4632465946504601F0F4FD00F0F6
:101560004CFB102100225BA08DE807000B46802277
:101570003021142000F0D6FE00F002FB4FF47A7008
:1015800002F020FEF6E6FEB5002400F036FB102047
:1015900053A1CDE900100026034680220296314671
:1015A000304600F0BFFE0C2752A0CDE900073B46B5
:1015B000802214210296002000F0B4FEAFF69410B1
:1015C000CDE900070C23802234210296002000F090
:1015D000A9FE00F0D5FA01F016FB322501F0E8FA79
:1015E0003B495220203901F0BFFBA0B101F044F982
:1015F000641CC1B2A4B2B4FBF5F005FB1040002896
:1016000041D000200D293FD000210843E6D000F052
:10161000F4FA0120FEBD3BA004F098FC3CA0CDE90B
:1016200000070C23802226210296002000F07AFE7B
:1016300000F0A6FA26481E3801F0ADFB24481E38FB
:1016400001F012FC224B04211E3B5A1D602001F0C8
:1016500040FC1F490420133901F07DFC0B49042094
:101660005C3101F05FFC2DA004F070FC184D0024EB
:101670001E3D2EA0295D04F069FC641CE4B2052C1B
:10168000F7D322A056E0CBE0CCE00000D800002049
:1016900000F00008707764323D257300C3DCC2EBB4
:1016A000D0DEB8C4B3C9B9A620A3A1007077643D49
:1016B00025730000560500203C2D2D00BCF5202090
:1016C000BCD3202020C7D0BBBB2020C8B7B6A80001
:1016D00024000020C9E8D6C3B3C9B9A6A3A100005D
:1016E0003D3D3D20C2BCC8EBBFA8C6AC203D3D3D42
:1016F00000000000C7EBB7C5C8EBD0C2BFA8C6AC9E
:10170000A3BA00007263353232206F6B0D0A0000FD
:10171000B6C1BFA8B3C9B9A6A3A10000BFA8B5C4EC
:10172000D0F2C1D0BAC5A3BA0000000025237820AA
:101730000000000004F00AFC01F046FA00F06FFA25
:101740009FA0CDE900070C238022194602960020B5
:1017500000F0E8FDAFF28060CDE900070C238022A5
:10176000342102967A2000F0DDFDAFF29060CDE9E1
:1017700000070C23802234210296002000F0D2FDC5
:1017800000F0FEF9FEF7EEFEC4B20A2CFAD22146B2
:1017900091A004F0DBFB00F042FA94A0CDE9000731
:1017A0000C23802226210296002000F0BBFD00F0D1
:1017B000E7F904EB4401904C002004EB41012A5C62
:1017C0000B18401CC0B29A740528F8D350228A49DD
:1017D0008A4801F04AFE002505EB450004EB400075
:1017E000417D0091037DC27C817C85A004F0AEFB2D
:1017F0006D1CEDB20A2DEFD387A0CDE900070C23B5
:10180000802226210296002000F08CFD00F0B8F91D
:101810004FF47A7002F0D6FC00F0EFF90020FEBD24
:101820000120EFE60121F0E62DE9F04F93B001F041
:10183000BFF97C49522001F097FA00287ED1FEF7CB
:1018400053FE10B1FF2013B020E5AFF2481004F0B2
:101850007DFB7448801C01F09EFA7248801C01F0E8
:1018600003FB704B04219B1C5A1D602001F031FBCF
:101870006C4904200D3101F06EFB5F4904205C319E
:1018800001F050FB0025DFF89C81DFF86CA12E46AB
:10189000AB4608F10208314663A004F057FB06EBA3
:1018A000460100240AEB410909EB040718F804106B
:1018B000BA7C62A004F04AFB18F80400B97C8842A4
:1018C00001D16D1CEDB2641CE4B2052CECD346A032
:1018D00004F03CFB042D1DD35C468AF84EB000F0AA
:1018E0009EF9324658A103A804F03CFB0C2003A942
:1018F000CDE900101423802202940D2100F012FD86
:1019000000F03EF94FF4FA7002F05CFCFEF7B4FC14
:10191000002098E7761C0025F6B20A2EBBD351466C
:1019200011F84E0F401CC0B20870052802D91E20C5
:101930008AF84F0000F061F90C2100E01CE046A29B
:10194000CDE900211423CDF808B080220D210C2010
:1019500000F0E8FC00F014F901F043F800F04DF954
:1019600000223021382000F03CFD2E490120091FC3
:1019700008703CA004F0EAFA01F026F9012062E7C1
:101980003EB500F03AF900250C24374823468DE88F
:10199000310080222946284600F0C4FC33A08DE89F
:1019A00031000C2380223421002000F0BBFC00F029
:1019B000E7F8BDE83E4040F6B83002F003BC000056
:1019C000C7EBCAE4C8EBB4A2B4E6494428302D39C9
:1019D000293A202000000000D5FDD4DAC2BCC8EBB3
:1019E000BFA8C6ACA3BA25640D0A0000D5FDD4DAA1
:1019F000C2BCC8EB2E000000D800002000F0000898
:101A00006361726469643D7B25582C25582C2558E8
:101A10002C25587D0D0A0000C2BCC8EBB3C9B9A67D
:101A2000A3A10000040000200D0ABFA8256420B572
:101A3000C4D0F2C1D0BAC5A3BA00000025783D25B4
:101A40007820202020000000524649443A2564C6F0
:101A5000A5C5E4B3C9B9A600BFA8C6ACB4EDCEF322
:101A6000000000000A00000028070008323032336E
:101A70002D31302D313620007047FEE7FEE7FEE7BE
:101A8000FEE77047704770477047000023480168C1
:101A900041F0010101604168214A11404160016843
:101AA000204A11400160016821F4802101604168F1
:101AB00021F4FE0141604FF41F0181601A49C00307
:101AC00008607047154A10B55068184B10F00C01AB
:101AD000174803D0042901D0082901D0036012E07F
:101AE0005168536801F470114FF0020413F4803F01
:101AF00004EB914102D053689B0301D50D4B00E0EC
:101B00000A4B594301605168094AC1F30311121D80
:101B1000515C0268CA40026010BD00000010024023
:101B20000000FFF8FFFFF6FE08ED00E000127A006B
:101B30005C00002000093D0070B50023FE4A01242E
:101B400011B1C2F8BC4101E0C2F8BC31FB4DC5F88F
:101B5000A0310021C2F8B031060602D5C2F8B44166
:101B600001E0C2F8B431C2F8B0414006491C000E91
:101B7000C9B20829EED3C5F8A041C2F8BC4170BD76
:101B800070B5EF4E002505F1B000C0B20021FFF79F
:101B9000D3FF00210846FFF7CFFF00211020FFF7F9
:101BA000CBFF002406EBC4000121405DFFF7C4FF1A
:101BB000641CE4B2802CF5D36D1CEDB2082DE2D389
:101BC00070BD00B500218D20FFF7B6FF0021142065
:101BD000FFF7B2FF0021AF205DF804EBACE700B5E2
:101BE00000218D20FFF7A8FF00211020FFF7A4FFA0
:101BF0000021AE205DF804EB9EE710B40021D04B2D
:101C00000A46002003EBC004401CC0B26254802886
:101C1000F8D3491CC9B20829F3D310BCB0E710B4FB
:101C20000021C74B0A46002003EBC004401CC0B291
:101C300062548028F8D3491CC9B20829F3D310BCD8
:101C40009EE710B57F2816D83F2914D80723A3EBA9
:101C5000D10301F00701C1F107040121A140B84CF3
:101C6000DBB204EBC000002AC25CC9B201D00A4357
:101C700000E08A43C25410BD2DE9F0411E4694464F
:101C80000F460546DDF818800CE03C4606E042466B
:101C900021462846FFF7D5FF641CE4B2B442F6D9CA
:101CA0006D1CEDB26545F0D9BDE8F0812DE9F04F2E
:101CB00082461E460F468946580700D0012000EB99
:101CC000D60071084843203A00F0FF0B02F0FF08ED
:101CD000002539E00C2E0FD0102E11D0182E35D142
:101CE000984908EBC80001EB80004FF0000C445D00
:101CF000200609D5099A0AE008EB48009249F2E764
:101D0000924901EB0810F0E7099890B1002239469A
:101D10005046FFF796FF60067F1C040EFFB2A7EB4C
:101D20000900B04207D10AF101004F4600F0FF0A56
:101D300008E00122EBE70CF1010C0CF0FF0CBCF108
:101D4000080FD5D36D1CEDB25D45C3D3BDE8F08F50
:101D50000346012000E05843491EC9B2FBD2704738
:101D60002DE9FF4F81B00027DDF838B01D469246BF
:101D700080463C464FF001094FEA5B0627E0281BEE
:101D8000401EC1B20A20FFF7E3FFBAFBF0F00A21C0
:101D9000B0FBF1F201FB120027B9691E8C4201DA97
:101DA00048B101273030C2B206FB0480C0B25B46A6
:101DB000CDF8009006E006FB0480C0B25B4620220E
:101DC000CDF800900299FFF771FF641CE4B2AC42B9
:101DD000D5D305B0BAE72DE9F84704461F46802061
:101DE00016460D46A0EB5709C3F140084FF0010A13
:101DF00016E0A14502D20024E819C5B2A84503DACD
:101E000000242546FFF7F9FECDF800A032783B46C6
:101E100029462046FFF74AFF04EB5700C4B2761C60
:101E2000307820385E28E4D9BDE8F88738B501213C
:101E30000C2002F0B2FD0121084602F0AEFD4FF485
:101E40007040ADF8000010208DF8030003208DF8DD
:101E5000020069463E4802F0B8FB4FF48070ADF8CE
:101E6000000069463B4802F0B0FB334C0125C4F842
:101E7000B051C4F8B4513148C0F8A051C4F8BC51B5
:101E8000C4F8B851642004F5D87402F09BF900201E
:101E9000A060642002F096F9A5600021AE20FFF753
:101EA0004BFE0021D520FFF747FE00215020FFF711
:101EB00043FE0021A820FFF73FFE00213F20FFF74F
:101EC0003BFE0021D320FFF737FE00210846FFF735
:101ED00033FE00214020FFF72FFE00218D20FFF769
:101EE0002BFE00211420FFF727FE00212020FFF702
:101EF00023FE00210220FFF71FFE0021A120FFF793
:101F00001BFE0021C020FFF717FE0021DA20FFF79B
:101F100013FE00211220FFF70FFE00218120FFF7A2
:101F20000BFE0021EF20FFF707FE0021D920FFF76D
:101F300003FE0021F1200FE0008021420000214239
:101F400046010020DC81000878770008EC7B00085F
:101F5000000C014000080140FFF7EEFD0021DB20EE
:101F6000FFF7EAFD00213020FFF7E6FD0021A42065
:101F7000FFF7E2FD0021A620FFF7DEFD0021AF20E4
:101F8000FFF7DAFDFFF739FE38BD2DE9F84F1E46A1
:101F900017468C460546DDF828A0B2E080282ED2F0
:101FA000202802D9203880B200E00020FE494FF0FE
:101FB000000801EB00194FF0800B002419F80810FD
:101FC0002BFA04F0014201D0FAB202E0B74207D086
:101FD000F2B20CEB0800C1B22819C0B2FFF731FE13
:101FE000641CE4B2082CE9D308F1010000F0FF08FA
:101FF000B8F1100FE1D30AF1010A083580E00020A2
:10200000834600EB800101EB4B10E8499AF8002071
:1020100011F8103093426AD101EB400000904178F2
:102020009AF80100814262D10024009904EB440037
:102030004FF0000801EB0009802099F8021020FA07
:1020400008F0014201D0FAB202E0B74208D0F2B281
:102050000CEB0400C1B205EB0800C0B2FFF7F1FDC4
:1020600008F1010000F0FF08B8F1080FE4D34FF0C9
:10207000000899F80310802020FA08F0014201D0EE
:10208000FAB202E0B74209D0F2B20CEB0400C1B2DE
:1020900005EB08000830C0B2FFF7D3FD08F10100DE
:1020A00000F0FF08B8F1080FE3D34FF0000899F8EB
:1020B0000410802020FA08F0014201D0FAB202E0B8
:1020C000B74209D0F2B20CEB0400C1B205EB080034
:1020D0001030C0B2FFF7B5FD08F1010000F0FF08B5
:1020E000B8F1080FE3D3641CE4B2182C9DD30BF1B4
:1020F000010080B283460A2883D30AF1020A183508
:10210000ADB29AF8000000287FF448AFBDE8F88F20
:102110002DE9FC4F1F46DDF82C9090460E460546F3
:10212000019074E0802A11D20D2A0BD0012000907A
:10213000F1B2E8B21023FFF7B9FD0835ADB209F1ED
:10214000010964E01036B6B2019DF6E74FF0000ACF
:1021500097490AEB0A1099F8002011F810309342C1
:102160004AD101EB40000090417899F8010081428A
:1021700042D1002400984FF0000C00EB440B80206B
:102180009BF8021020FA0CF0014202D008F0FF0286
:1021900002E0B84507D0FAB23019C1B205EB0C0025
:1021A000C0B2FFF74EFD0CF1010C0CF0FF0CBCF1BE
:1021B000080FE4D34FF0000C9BF80310802020FAA6
:1021C0000CF0014202D008F0FF0202E0B84508D04E
:1021D000FAB23019C1B205EB0C000830C0B2FFF7FB
:1021E00030FD0CF1010C0CF0FF0CBCF1080FE3D337
:1021F000641CE4B2102CBDD30AF101001FFA80FA6E
:10220000BAF13C0FA4D3103509F10209ADB299F827
:102210000020002A86D1BDE8FC8F2DE9FC4F1F4627
:10222000DDF82C9090460E460546019075E0802A18
:1022300011D20D2A0BD001200090F1B2E8B20C238C
:10224000FFF734FD0835ADB209F1010965E010363C
:10225000B6B2019DF6E70020824600EB800101EB5B
:10226000CA00544999F8002011F8103093424AD11D
:1022700001EB40000090417899F80100814242D181
:10228000002400984FF0000C00EB440B80209BF8DA
:10229000021020FA0CF0014202D008F0FF0202E026
:1022A000B84507D0FAB23019C1B205EB0C00C0B284
:1022B000FFF7C7FC0CF1010C0CF0FF0CBCF1080F90
:1022C000E4D34FF0000C9BF80310802020FA0CF0B0
:1022D000014202D008F0FF0202E0B84508D0FAB28D
:1022E0003019C1B205EB0C000830C0B2FFF7A9FCF1
:1022F0000CF1010C0CF0FF0CBCF1080FE3D3641CD3
:10230000E4B20C2CBDD30AF1010080B282469628BB
:10231000A3D30C3509F10209ADB299F80020002AC7
:1023200085D178E72DE9FF4F81B00546DDE90E67DD
:1023300080469B460C468A460020814630E0B9F133
:10234000000F0DD00C2F3CD0102F42D0182F06D1EB
:1023500000230122214628460096FFF716FE38E5A5
:10236000802A01D90120E8E7039908EB0100A0EBDE
:102370005700A84202DAE01984B245460AEB0B0086
:10238000C01BA042EBDB0D2A16D001200090E1B269
:10239000E8B23B46FFF78AFC05EB570085B2761C96
:1023A0003278002ACBD114E5EC7B000888A3000822
:1023B000A09C0008388F0008E01984B24546761CBE
:1023C000EAE700230122214628460096FFF725FF71
:1023D000FFE400230122214628460096FFF798FEDD
:1023E000F7E42DE9F0470746F9480C4688464FF0D8
:1023F000200A00EB42194FF0000C002519F80C6080
:10240000E1B23006F8B201D5012200E00022FFF768
:1024100018FC7006641C060EA4B2A4EB0800102879
:102420000BD06D1CEDB2082DEAD30CF1010C0CF0B1
:10243000FF0CD445E1D3BDE8F0877F1C4446BFB212
:10244000F3E72DE9F0470024E24925464FF480697F
:1024500001EB802AA4464FF6FF781AF80C7000268C
:102460003806E9B2E0B201D5012200E00022FFF710
:10247000E8FB641CA4B208EA4707802C0AD0761C4B
:10248000B6B2082EECD30CF1010C1FFA8CFCCC4533
:10249000E3D3D0E700246D1CADB2F4E7C0F34511DF
:1024A000C20AC00200EB4110104480B270472DE90F
:1024B000F04F844616460F460025704203211C4605
:1024C00001EB400858E007EB06090CEB050BE2B204
:1024D00009F0FF010BF0FF00FFF7B3FBACEB050ABF
:1024E000E2B209F0FF010AF0FF00FFF7AAFBA7EB39
:1024F0000609E2B209F0FF010BF0FF00FFF7A1FBB4
:10250000E2B209F0FF010AF0FF00FFF79AFB07EBC8
:1025100005090CEB060BE2B209F0FF010BF0FF001E
:10252000FFF78FFBACEB060AE2B209F0FF010AF0FD
:10253000FF00FFF786FBA7EB0509E2B209F0FF01F8
:102540000BF0FF00FFF77DFBE2B209F0FF010AF09C
:10255000FF00FFF776FBB8F1000F04DA08EB850007
:1025600000F1060806E0A91B08EB8100761E00F1C9
:102570000A08B6B26D1CADB2B542A4D3B54243D180
:1025800007EB06090CEB0508E2B209F0FF0108F0C1
:10259000FF00FFF756FBE2B209F0FF0108F0FF0071
:1025A000FFF74FFBA7EB0609E2B209F0FF0108F0C5
:1025B000FF00FFF746FBACEB0500E2B209F0FF01BC
:1025C000C0B2FFF73EFB07EB05080CEB0609E2B2D1
:1025D00008F0FF0109F0FF00FFF733FBACEB060644
:1025E000E2B208F0FF01F0B2FFF72BFB7D1BE2B275
:1025F000E9B209F0FF00FFF724FBE2B2E9B2F0B262
:10260000BDE8F04FFFF71DBBBDE8F08F2DE9F04F9F
:1026100005460C46B2EB050CA3EB04074FF0FF3068
:1026200002D44FF0010902E08146CCF1000C002FEA
:1026300002DB4FF0010801E080467F424FEA4C0B7D
:102640004FEA470ABC4518DDAAEB0C06002711E04B
:102650000998E1B2C2B2E8B2FFF7F3FA002E04DB48
:1026600004EB0800A6EB0B0684B205EB0900564408
:1026700085B27F1C6745EBDDC6E7ABEB07064FF085
:10268000000C12E00998E1B2C2B2E8B2FFF7D9FA41
:10269000002E04DB05EB0900A6EB0A0685B204EB6D
:1026A00008005E4484B20CF1010CBC45EADDABE7E6
:1026B0002DE9F84F1C464EF67D7B86180F46804666
:1026C000B2B20B46CDF800B0FFF7A0FF3C44601C4F
:1026D000751E42F6651A83B207F10109AAB21FFA04
:1026E00089F1A8B2CDF800A0FFF790FFA3B2B2B273
:1026F000A1B24046CDF800A0FFF788FF4246A3B242
:1027000039461046CDF800B0FFF780FF0A980090D8
:10271000641E08F10100A3B2AAB21FFA89F180B2C7
:10272000FFF774FFF2E42DE9F84F8246CC184F1CF6
:102730000AEB02060A98894642F6651B04F1010875
:10274000751E38B3012847D0022822D14FF6FF7BEF
:102750004B46B2B219465046CDF800B0FFF756FFCF
:102760001FFA88F3AAB2B9B2A8B2CDF800B0FFF749
:102770004DFFCDF800B0A3B2B2B2A1B25046FFF700
:1027800045FFCDF800B05246A3B249461046FFF7C8
:102790003DFFBBE44EF67D704B460090B2B2194649
:1027A0005046FFF733FF1FFA88F3AAB2B9B2A8B2B6
:1027B000CDF800B0FFF72AFFA3B2B2B2A1B25046E3
:1027C000CDF800B0FFF722FF4EF67D700090DAE7FB
:1027D0003877000822A600084B46B2B21946504688
:1027E000CDF800B0FFF712FF4EF67D7000901FFA93
:1027F00088F3AAB2B9B2A8B2FFF708FF4EF67D700F
:102800000090B8E77047704738B501210D2002F0FD
:10281000C4F801215F4801F063FFF020ADF800002B
:1028200048208DF803005C4D03248DF80240694672
:10283000284601F0CAFE0B21ADF8001010208DF8DB
:1028400003008DF802406946284601F0BEFEE814F8
:10285000ADF800006946514801F0B7FE504D002424
:1028600005EBC400818855F8340001F018FF641CA2
:10287000E4B2042CF4D338BD2DE9F05FDFF82091E9
:10288000DFF81C81002509F12009052001F09AFCE0
:1028900008EBC50758F83500B98801F002FF414838
:1028A00000244FF0010AA34600EB8506052001F045
:1028B00089FC09EBC40159F83400898801F0DBFE7A
:1028C000F0B306F804B0641CE4B2042CEED3B9886B
:1028D00058F8350001F0E3FE6D1CEDB2042DD4D3A1
:1028E00030480178012935D04178012934D08178E8
:1028F000012933D0C178012932D00179012931D0A1
:102900004179012930D0817901292FD0C17901295C
:102910002ED0017A01292DD0417A01292CD0817A3B
:1029200001292BD0C17A01292AD0017B012929D084
:10293000417B012928D0817B012927D0C07B00E081
:1029400005E0012824D04FF0FF30BDE8F09F06F8E5
:1029500004A0B8E70D20F8E70E20F6E70F20F4E713
:102960001020F2E70920F0E70A20EEE70B20ECE761
:102970000C20EAE70520E8E70620E6E70720E4E781
:102980000820E2E70120E0E70220DEE70320DCE7A1
:102990000420DAE700023000000C0140000801408A
:1029A000700000204605002038B50121082001F004
:1029B000F4FF4FF44070ADF8000010208DF80300D4
:1029C00003201C4C8DF802006946204601F0FDFDF5
:1029D000A115204601F065FE6115204601F061FE5B
:1029E00038BD70B5134D4FF480742146284601F070
:1029F00056FE4FF4167001F0E5FB21462846BDE86F
:102A0000704001F04EBE70B50A4E00244FF4807540
:102A10002946304601F043FEC82001F0D3FB294689
:102A2000304601F03EFEC82001F0CCFB641C052CB2
:102A3000EEDB70BD000C0140002205E00C21491EB8
:102A4000C9B2FCD2521C92B28242F7D3704738B559
:102A500001210C2001F0A1FF10248DF80340032078
:102A60008DF80200E220FE4DADF8000069462846D0
:102A700001F0ABFD28218DF80310ADF80040694648
:102A8000284601F0A2FD8021284601F008FE38BD4D
:102A90002DE9F041F34E002480462746C6F89841C0
:102AA0000125C4F1070105FA01F010EA080F02D070
:102AB000C6F8945101E0C6F89471052001F06BFB53
:102AC000C6F89851052001F066FBD6F81001C6F84B
:102AD0009871641CE4B2082CE3D3BDE8F0812DE9C1
:102AE000F0410025DF4E2C462F46C6F898514FF096
:102AF0000108C6F89471052001F04DFBC6F89881D5
:102B0000052001F048FBD6F81001012805D1C4F1D9
:102B1000070108FA01F02843C5B2C6F89871641C91
:102B2000E4B2082CE5D32846D7E770B5CC4D0E4665
:102B300004468021284601F0B4FD7E2000EA4400CE
:102B4000FFF7A6FF3046FFF7A3FF2846BDE8704019
:102B5000802101F0A4BD70B5C14D044680212846F6
:102B600001F09FFD7E2000EA440040F08000FFF766
:102B70008FFFFFF7B4FF04468021284601F08FFD48
:102B8000204670BD70B50C460546FFF7E4FF40EAED
:102B900004012846BDE87040C7E770B50C460546FD
:102BA000FFF7D9FF20EA04012846BDE87040BCE7E2
:102BB00010B51420FFF7CFFF800704D10321BDE833
:102BC00010401420DEE710BD03211420E5E710B506
:102BD000A34C0221204601F062FD0120FFF72CFFEB
:102BE0000221204601F05DFD0120FFF725FF0221B3
:102BF000204601F054FD0120FFF71EFF0F21BDE824
:102C00001040012091E710B5FFF721FFFFF7DFFF2C
:102C10008D212A20FFF789FF3E212B20FFF785FF1A
:102C200032212D20FFF781FF00212C20FFF77DFFAF
:102C300040211520FFF779FF3D211120FFF775FF97
:102C400000210120FFF771FFBDE81040B0E72DE93A
:102C5000FF5F0025DDF838B017468A4680464FF002
:102C600002092E460C2805D0B8F10E0F04D112250A
:102C7000102601E07725302645F080010220FFF77D
:102C800054FF80210420FFF788FF80210A20FFF7EE
:102C900079FF00210120FFF748FF002406E01AF821
:102CA00004100920FFF741FF641CA4B2BC42F6D314
:102CB00041460120FFF739FFB8F10C0F03D1802105
:102CC0000D20FFF75FFF4FF4FA640420FFF743FF86
:102CD000641E24040746240C03D0F80701D13742B0
:102CE000F3D080210D20FFF758FF8CB30620FFF7AB
:102CF00032FF10F01B0F01D0022028E0B8F10C0FBA
:102D000024D10A20FFF727FF05460C20FFF723FFF9
:102D100010F007004FEAC50104D008390844ABF8A9
:102D2000000001E0ABF8001025B1122D00D91225EA
:102D3000002409E00125FBE70920FFF70CFF01460D
:102D400003980155641CA4B2AC42F5D3002081461F
:102D500080210C20FFF7E9FE00210120FFF7E5FEAE
:102D600004B04846BDE8F09F7CB50C4605460721F7
:102D70000D20FFF7DAFE257001A8234600900122FE
:102D800019460C20FFF763FF18B9BDF8041010298D
:102D900000D002207CBD7CB50546082100240846F1
:102DA000FFF7FBFE80210E20FFF7F7FE00210D202C
:102DB000FFF7BBFE932028702020687001A82B46E7
:102DC0000090022219460C20FFF741FF06000AD1AD
:102DD0000022A85C521C4440D2B2042AF9D3A85C59
:102DE000A04200D0022680210E20FFF7CBFE304605
:102DF0007CBD2DE9F0410E4607461546042105200D
:102E0000FFF7CBFE80210A20FFF7BCFE0021012046
:102E1000FFF78BFE002405E0395D0920FFF785FEF2
:102E2000641CA4B2B442F7D303210120FFF77DFE56
:102E30004FF47A740520FFF78EFE641E2404240CE0
:102E400001D04007F6D52220FFF785FE287021200B
:102E5000FFF781FE6870BDE8F0410021012064E6C3
:102E6000000801400000214210B586B093218DF882
:102E7000041070218DF8051000218DF80A1001AAA8
:102E80005418435CA370445C9DF80A30491C6340AD
:102E9000C9B28DF80A300429F2D3072101A8D21D46
:102EA000FFF7A7FF08210846FFF777FE04A801AB4C
:102EB0000090092219460C20FFF7C9FE18B9BDF889
:102EC0001000182802D0002006B010BD9DF80400A4
:102ED000FAE730B585B08DF804008DF805100020B4
:102EE00001A9145C0D18401CC0B2AC700628F8D3C0
:102EF00000200C181A5C401CC0B222720428F8D3BF
:102F000004A800900B460C220E20FFF7A0FE040040
:102F100004D10820FFF71FFE000700D4022405B0EB
:102F2000204630BD1CB50C46302121706070A21CBB
:102F300002212046FFF75DFF01A8234600900422EE
:102F400019460C20FFF783FE18B9BDF8041090292C
:102F500000D002201CBD70B588B00C46A0218DF8B1
:102F6000041001AD8DF8050002212846AA1CFFF7C8
:102F700040FF06AE01AB042219460C200096FFF775
:102F800066FE38BBBDF81800042823D19DF8040064
:102F900000F00F000A281DD10020215C2954401C9C
:102FA000C0B21028F9D305AA102101A8FFF721FF0C
:102FB00001AB122219460C200096FFF748FE48B9D3
:102FC000BDF81810042905D19DF8041001F00F0177
:102FD0000A2900D0022008B070BD0EB550208DF82F
:102FE000040000208DF805000DF10602022101A861
:102FF000FFF7FFFE02A801AB0090042219460C2047
:10300000FFF725FE0EBD000030B56423B0FBF3F4DE
:10301000B0FBF3F5E4B203FB1500132C01D96430C7
:10302000C0B200EB90030724B3FBF4F504FB1533A7
:10303000EE4D1A440D44800715F8015C2A4492B203
:1030400003D1032901D2521E92B2B2FBF4F004FB69
:10305000102030BD81070CD16421B0FBF1F201FBDF
:10306000120141B94FF4C871B0FBF1F201FB12003B
:1030700008B100207047012070472DE9F04102F0AF
:10308000C6F8DFF86CC30546B0FBFCF3D948DA4E4E
:103090000188994230D0038040F2B2744FF4B77780
:1030A0004FF4B6780FE02046FFF7D4FF38B1BB42AB
:1030B00002D3A3F5B77304E0641CA4B205E0A3F245
:1030C0006D13641CA4B24345EDD8B480C74F0024EF
:1030D0000C370BE0B088FFF7BDFF08B1012C2ED0F4
:1030E000385D984204D81B1A641CA4B21C2BF1D280
:1030F000641CB4715B1CF371B5FBFCF00CFB10504D
:103100004FF46161B0FBF1F23270B0FBF1F201FB00
:1031100012033C22B3FBF2F37370B0FBF1F301FB3B
:103120001300B0FBF2F102FB1100B070F279B1793B
:10313000B088FFF769FF30720020BDE8F0811D2BD9
:10314000D6D31D3BD0E72DE9F05F99460546DDE972
:103150000AAB0023A0F2B27090468C46822802D3BC
:103160000120BDE8F09F40F2B274A44EA44F08E0E5
:103170002046FFF76FFF08B1334400E03B44641C76
:10318000A4B2AC42F4D3ACF1010C984F0CF0FF06A2
:1031900000240C37DFF858C20EE0385D40F2A3215E
:1031A000484303EBC0132846FFF754FF10B1012C2E
:1031B00000D16344641CA4B2B442EED340F2A32114
:1031C00008FB01F08A4903EBC01049420144C9EBF6
:1031D0004912C2EB092001EB0011CAEB0A1001EB06
:1031E000800000EB0B0401214FF0C05001F0DEFB2A
:1031F000012002F04DFE204602F012F802F042F8E3
:103200000020AEE77CB5002401214FF0C05001F052
:10321000CDFB012002F03CFE042002F00AFE45F244
:103220005005A84240D002F0DBFD012001F050FB28
:1032300004E0641CE4B20A2000F0C4FF412001F065
:10324000D0FA18B1FA2C04D301207CBDFA2CF0D3AB
:10325000FAE74FF4807001F04CFB012001F04EFBC7
:1032600002F010F802F014F80121084601F0B8FF4E
:1032700002F008F801F0BDFF47F6FF7001F0DDFF36
:1032800002F000F837212A20CDE90001112306229F
:103290000C2140F2E570FFF756FF01F0B1FF29461F
:1032A000042002F0BFFD07E001F0F2FF0121084613
:1032B00001F096FF01F0E6FF03208DF800000020EA
:1032C0008DF801008DF8020001208DF8030068469A
:1032D00001F0D1F8FFF7D1FE00207CBD0EB5012032
:1032E00001F0EFFF40B1474991F84F0010B1401E87
:1032F00081F84F00FFF7C1FE022001F0E2FF80B12C
:10330000022001F0ECFFFFF7B8FE3B4883784278DB
:1033100001788DE80E00C379827981883AA002F0A5
:1033200015FE052001F0DBFFBDE80E4001F0AABF4D
:103330002DE9F05F99460546DDE90AAB0023A0F2CE
:10334000B27090468C46822801D3012009E740F2F2
:10335000B2742A4E2A4F08E02046FFF77BFE08B1E0
:10336000334400E03B44641CA4B2AC42F4D3ACF15F
:10337000010C1E4F0CF0FF0600240C37DFF870C064
:103380000EE0385D40F2A321484303EBC01328460A
:10339000FFF760FE10B1012C00D16344641CA4B29D
:1033A000B442EED340F2A32108FB01F0104903EB35
:1033B000C01049420144C9EB4912C2EB092001EB9C
:1033C0000011CAEB0A1001EB800000EB0B04012195
:1033D0004FF0C05001F0EAFA012002F059FD2046FA
:1033E00001F039FF01F04EFF0020BAE622AA0008E2
:1033F00080510100B0000020560500200085E20148
:103400008033E101D8000020416C61726D20546965
:103410006D653A25642D25642D25642025643A25A3
:10342000643A25640A000000008870472DE9F041E5
:1034300016460F460546002407E037F814102846C4
:1034400001F0A3FD641CA4B2AD1CB442F5D3BDE8E9
:10345000F08110B5002305E030F8024B21F813404D
:103460005B1C9BB29342F7D310BD2DE9F05FA0F136
:103470000064154688468246B4F5002F50D201F00C
:1034800088FCE70AC4F34906C6F58064A54200D863
:103490002C46DFF89CB04FF0006000EBC72081465F
:1034A0004FF480622249FFF7D4FF00204FF6FF72ED
:1034B00006E033183BF81310914203D1401C80B250
:1034C000A042F6D3A04223D2484601F09CFC002043
:1034D0005A4606E038F810108319401C22F81310E1
:1034E00080B2A042F6D348464FF480621049FFF7FD
:1034F0009DFFA54210D0281B08EB4408A2440026DB
:1035000085B24FF480647F1CA542C4D82C46C2E724
:10351000224641465046EAE7BDE8F05F01F045BC6F
:10352000BDE8F09F13B5012201A9FFF79EFF1CBD66
:103530006005002070B5524C40F22551204601F044
:10354000DFFB00281AD0204601F073FB4D4DC4B2BA
:103550002888010412D4B0F5C87F10D24A4E002149
:10356000304602F002FC288818B90121304602F0EA
:10357000FFF9464928880C54401C288070BD40F44F
:103580000040FAE7F0B5074687B00121042001F0BA
:1035900004FA0121480401F009FA394D284601F0E6
:1035A0004BFA0424ADF8104003208DF812001820C7
:1035B000374E8DF8130004A9304601F006F80820B4
:1035C000ADF810008DF8134004A9304600F0FDFF5F
:1035D0000024ADF808400C20ADF80440ADF80A0016
:1035E0000097ADF80640ADF80C406946284601F05A
:1035F00053FA0121284601F0C2FA012240F2255176
:10360000284601F0C6FA26208DF8140001208DF816
:1036100015008DF816408DF8170005A800F02BFF57
:1036200042F2CF0140F2E73000F036F815480021B1
:103630000480154802F09CF907B0F0BD0FB415489E
:103640002DE9F04107AA069902F06EFC114802F03C
:103650009BFE85B200240A4E0E4F0BE040213046FF
:1036600001F044FB0028F9D0395D304601F0DDFA65
:10367000641CA4B2AC42F1D3BDE8F0015DF814FBC8
:1036800000440040B200002000040040F00E002082
:1036900000080140600D00207FB50D460446012161
:1036A000022001F083F9ADF80440ADF80050002489
:1036B0001C4DADF80640ADF802406946284601F0C1
:1036C000AFFE01221146284602F067F91D218DF850
:1036D0000C108DF80D4003208DF80E0001208DF8A0
:1036E0000F0003A800F0C7FE0121284602F040F9B0
:1036F0007FBD10B50B4C0121204602F062FB002873
:103700000ED00948018841F4004101800121204682
:1037100002F063FB2046BDE81040002102F028B90A
:1037200010BD000000040040B200002008B50121D7
:10373000042001F032F90120ADF8000028208DF8B6
:10374000030003208DF802006946FE4800F03DFFAB
:1037500008BD10B5FC4C2068000E00F047FC206846
:10376000C0F3074000F042FC2088C0F3072000F0BF
:103770003DFC2078BDE8104000F038BC7CB5044624
:10378000EF208DF8000001208DF80100EE48EF4E8B
:103790000068010E8DF80210010C8DF80310010A6B
:1037A0008DF804108DF8050007208DF8060000251F
:1037B0008DF8075035800CE0012000F003FD3088C3
:1037C000000406D535806946E14802F07BFD0028FB
:1037D00004D1641E2404240CEED100207CBD10B55D
:1037E00000F00CFCFFF7B5FF012000F0FFFB032009
:1037F00000F00CFC012000F0F9FB052000F010FCAB
:103800004FF4FA60FFF7BAFF08B1407A10BDFF200D
:1038100010BD10B5044600F0F1FBFFF79AFF012040
:1038200000F0E4FB042000F0F1FB022000F0DEFBDE
:10383000204600F0DBFBE01D00F0F2FB4FF4FA60E5
:10384000FFF79CFF08B1407A10BDFF2010BD10B5F6
:1038500000F0D4FBFFF77DFF012000F0C7FB032041
:1038600000F0D4FB032000F0C1FB072000F0D8FBE0
:103870004FF4FA60FFF782FF08B1407A10BDFF20D5
:1038800010BD2DE9F0411E4614460D46074600F0D6
:10389000B5FBFFF75EFF012000F0A8FB082000F059
:1038A000B5FB042000F0A2FB384600F09FFB280A7D
:1038B00000F09CFBE8B200F099FB200A00F096FBB8
:1038C000E0B200F093FB07EB1520E9B2084400EBEF
:1038D0001420E1B208440D3000F0A2FB4FF4FA606E
:1038E000FFF74CFF58B1C27A837A417A02EB032288
:1038F0003280427B007B02EB0020708000E0FF21E1
:103900000846BDE8F08110B500F078FBFFF721FF15
:10391000012000F06BFB032000F078FB052000F095
:1039200065FB092000F07CFB4FF4FA60FFF726FFEF
:1039300008B1407A10BDFF2010BD70B50C46054699
:1039400000F05CFBFFF705FF012000F04FFB0620B5
:1039500000F05CFB062000F049FB284600F046FB27
:10396000200A00F043FBE0B200F040FB05EB14201E
:10397000E1B208440D3000F053FB4FF4FA60FFF75A
:10398000FDFE08B1407A70BDFF2070BD70B50C46D9
:10399000054600F033FBFFF7DCFE012000F026FBBC
:1039A000072000F033FB0C2000F020FB280A00F079
:1039B0001DFBE8B200F01AFB200A00F017FBE0B292
:1039C00000F014FBE8B200EB152000EB1420E1B28C
:1039D0000844143000F024FB4FF4FA60FFF7CEFEE9
:1039E00008B1407A70BDFF2070BD10B500F006FB35
:1039F000FFF7AFFE012000F0F9FA032000F006FB0C
:103A00000D2000F0F3FA112000F00AFB4FF4FA60E9
:103A1000FFF7B4FE08B1407A10BDFF2010BD212889
:103A20003AD2DFE800F011131517191B1D1F2121D1
:103A300023253939393925273939392939392B2D70
:103A40002F3133393935370042A0704742A07047D3
:103A500045A0704749A070474DA0704754A07047DB
:103A60005BA0704761A070476EA0704770A0704760
:103A700073A0704776A0704779A0704781A0704707
:103A800084A0704786A0704789A070478DA07047BA
:103A900091A0704793A0704795A0704770B50C46F1
:103AA000054600F0ABFAFFF754FE012000F09EFA45
:103AB000052000F0ABFA0E2000F098FA284600F03E
:103AC00095FA204600F092FA2819143000F0A8FA6E
:103AD0004FF4FA60FFF752FE10B1447A54B100E09F
:103AE000FF242046FFF79BFF014686A002F02EFA36
:103AF000204670BD85A002F029FAF9E770B50446AA
:103B000000F07CFAFFF725FE012000F06FFA032099
:103B100000F07CFA0F2000F069FA132000F080FA20
:103B20004FF47A70FFF72AFE50B1C17B827B457A51
:103B300001EB022189B22180427CA270427DEFE03C
:103B4000FEE0000000080140B4000020B2000020A8
:103B5000F00E00204F4B0000CAFDBEDDB0FCBDD30F
:103B6000CAD5B4EDCEF30000B4ABB8D0C6F7C9CF18
:103B7000C3BBD3D0CAD6D6B800000000C2BCC8EBC5
:103B8000D6B8CEC6CDBCCFF1CAA7B0DC00000000CD
:103B9000D6B8CEC6CDBCCFF1CCABB8C9A1A2CCAB08
:103BA000B5ADB6F8C9FAB2BBB3C9CCD8D5F70000E9
:103BB000D6B8CEC6CDBCCFF1CCABCAAAA1A2CCABF5
:103BC000BAFDB6F8C9FAB2BBB3C9CCD8D5F7000074
:103BD000D6B8CEC6CDBCCFF1CCABC2D2B6F8C9FAFE
:103BE000B2BBB3C9CCD8D5F700000000D6B8CEC65A
:103BF000CDBCCFF1D5FDB3A3A3ACB5ABCCD8D5F735
:103C0000B5E3CCABC9D9A3A8BBF2C3E6BBFDCCAB33
:103C1000D0A1A3A9B6F8C9FAB2BBB3C9CCD8D5F71D
:103C200000000000D6B8CEC6B2BBC6A5C5E42100D0
:103C3000CCD8D5F7BACFB2A2CAA7B0DC000000003A
:103C4000C9BEB3FDC4A3B0E5CAA7B0DC0000000044
:103C5000C7E5BFD5D6B8CEC6BFE2CAA7B0DC000064
:103C6000BBBAB3E5C7F8C4DAC3BBD3D0D3D0D0A7AF
:103C7000D4ADCABCCDBCB6F8C9FAB2BBB3C9CDBCD1
:103C8000CFF10000B6C1D0B420464C41534820B318
:103C9000F6B4ED00CEB4B6A8D2E5B4EDCEF3000094
:103CA000CEDED0A7BCC4B4E6C6F7BAC5000000009B
:103CB000BCC4B4E6C6F7C9E8B6A8C4DAC8DDB4ED3A
:103CC000CEF30000BCC7CAC2B1BED2B3C2EBD6B8F5
:103CD000B6A8B4EDCEF30000D6B8CEC6BFE2C2FAA5
:103CE00000000000B5D8D6B7B4EDCEF30000000058
:103CF000C4A3BFE9B7B5BBD8C8B7C8CFC2EBD3D050
:103D0000CEF300000D0A2573000000000D0AC9E87B
:103D1000D6C3B2CECAFDB3C9B9A6A3A100000000A4
:103D2000837C067D02EB0362C37C1B0403EB06234A
:103D30001A446260C27D2272407E60725DB100E012
:103D4000FF252846FFF76BFE0146AFF2480002F060
:103D5000FDF8284670BDB7A002F0F8F8A178BBA026
:103D600002F0F4F8BDA0616802F0F0F8617A4FF457
:103D700016504143BCA0EAE770B5044600F03EF996
:103D8000FFF7E7FC012000F031F9072000F03EF9D1
:103D9000152000F02BF9200E00F028F9C4F307409D
:103DA000054600F023F9C4F30720064600F01EF98B
:103DB000E0B200F01BF905EB14603044E1B20844B6
:103DC0001D3000F02DF9AB4E4FF4FA603460FFF770
:103DD000D5FC08B1457A00E0FF2534604DB1284696
:103DE000FFF71DFE0146AFF2E40002F0AFF82846EF
:103DF00070BDA1A002F0AAF8F9E72DE9F0410E4646
:103E0000074600F0FBF8FFF7A4FC012000F0EEF8F5
:103E1000242000F0FBF8182000F0E8F8384600F005
:103E2000E5F80024305D00F0E1F8305D641C2844C2
:103E3000E4B285B2202CF5D378193D3080B200F081
:103E4000EFF84FF4FA60FFF799FC08B1407A58E5B3
:103E5000FF2056E570B50C46054600F0CFF8FFF799
:103E600078FC012000F0C2F8042000F0CFF81920FF
:103E700000F0BCF8284600F0B9F805F11E0000F08B
:103E8000CFF84FF4FA60FFF779FC48B1417A00228D
:103E900083189B7AA354521CD2B2202AF8D300E094
:103EA000FF21084670BD2DE9F0411E4614460D461F
:103EB000074600F0A3F8FFF74CFC012000F096F84D
:103EC000082000F0A3F81B2000F090F8384600F01E
:103ED0008DF8280A00F08AF8E8B200F087F8200A86
:103EE00000F084F8E0B200F081F807EB1520E9B2A9
:103EF000084400EB1420E1B20844243000F090F8AC
:103F00004FF4FA60FFF73AFC58B1C27A837A417AEB
:103F100002EB03223280427B007B02EB00207080A8
:103F200000E0FF210846ECE470B5054600F066F8B5
:103F3000FFF70FFC012000F059F8032000F066F8AD
:103F40001D2000F053F8212000F06AF84FF4FA60C9
:103F5000FFF714FC38B1C17A827A447A01EB02216E
:103F600029805CB100E0FF242046FFF758FD0146A0
:103F7000AFF2702001F0EAFF204670BDC17A807A6E
:103F800001EB002141A0F5E770B5044600F036F8DA
:103F9000FFF7DFFB012000F029F8002000F026F8F1
:103FA000002000F023F8C82000F00CF93C4A1088EB
:103FB00000040BD53B4900200B78EF2B05D14B7843
:103FC000012B02D18B79072B02D01080012070BD0C
:103FD0004B798D7803EB0563CD7809792D0405EBDA
:103FE0000121194421601080002070BD2E490A88EB
:103FF0005206FCD52C49091D0880704710B5EF20EA
:10400000FFF7F4FFBDE810400120EFE710B50446CC
:10401000C0F30720FFF7EAFFE0B2BDE81040E5E794
:1040200010B50446000AFFF7E1FFE0B2BDE810401A
:10403000DCE700000D0AC4A3BFE9D7EEB4F3D6B89D
:10404000CEC6C8DDC1BF3D25640000000D0AB6D450
:10405000B1C8B5C8BCB63D25640000000D0AB5D88E
:10406000D6B73D25780000000D0AB2A8CCD8C2CA48
:104070003D256400B40000200D0AC9E8D6C3B5D8B8
:10408000D6B7B3C9B9A6A3A1000000000D0AD3D0CA
:10409000D0A7D6B8CEC6B8F6CAFD3D25640000004C
:1040A000B2000020F00E0020004400400121082052
:1040B00000F073BC2DE9F0410025294E294F2C4614
:1040C0004FF00108C6F8BC81C6F8B041C7F8AC4152
:1040D000C7F8A841032000F075F8C6F8BC41C6F83F
:1040E000B081C7F8AC41C7F8A841032000F06AF8D6
:1040F0006D1CFF2DE6DDC6F8BC41C6F8B041C7F81F
:10410000AC41C7F8A841BDE8F0812DE9F041002598
:10411000134E144F2C464FF00108C6F8BC41C6F8A8
:10412000B041C7F8AC41C7F8A881052000F04AF8B3
:10413000C6F8BC41C6F8B041C7F8AC81C7F8A84181
:10414000052000F03FF86D1CFF2DE6DDC6F8BC41F0
:10415000C6F8B041C7F8AC41C7F8A841D3E70000A2
:10416000000021420080214210B56FF0040000F0F1
:10417000C2F9204820490068B0FBF1F01F49C0B2E5
:1041800000EB40020870C2EBC0104FF6FF7202EA6B
:10419000C000488010BD1949097848434FF0E0211C
:1041A000486100238B61086940F0010008610869DB
:1041B000C20701D0C003FAD5086920F001000861E8
:1041C0008B6170470D49498848434FF0E0214861B1
:1041D00000238B61086940F0010008610869C2078B
:1041E00001D0C003FAD5086920F0010008618B6195
:1041F000704700005C00002000127A00B800002028
:10420000704779490A885206FCD5774AC1B2121D17
:104210001180704770B5054686B0012144F2040054
:1042200000F0BBFB4FF40070ADF8100003248DF8D4
:10423000124018206D4E8DF8130004A9304600F08E
:10424000C4F93015ADF8100004208DF8130004A94E
:10425000304600F0BAF925208DF814008DF815408D
:104260008DF8164001208DF8170005A800F003F91D
:104270000020ADF80400ADF80600ADF80800ADF878
:104280000C000C20584CADF80A00009569462046F9
:1042900000F002FC012240F22551204600F079FC9A
:1042A0000121204600F06BFC06B070BD70B54E4C8D
:1042B00040F22551204600F023FD00280ED0204674
:1042C00000F0B7FC4A4AC1B21088030406D4440483
:1042D0004FF0000306D53A2901D0138070BD40F499
:1042E00000400DE0212909D0C0F30D04414D401CD0
:1042F00080B229551080C728EFD870BD40F48040A7
:10430000108070BDFEB5014606223A4801F0ECFF70
:10431000374E002578B1042237A1364801F0E4FF7A
:10432000A0B1307810F0FF0F3BD035A001F00EFEA9
:104330000024304F16E035802E4802F025F8014663
:104340002C4802F040F875800020FEBD3580C82161
:10435000284802F038F8758026E0395D2BA001F07E
:10436000F5FD641C3078A042F7DC29A001F0EEFDD9
:104370007088401C70803088000412D53580FDF7AD
:104380004EFC0C2023A1CDE90010034680220295AB
:104390000D21FDF7C7FFFDF7F3FB4FF44870FFF762
:1043A00011FF70880528D1D80120FEBD10B5044644
:1043B00000F03BFC8021204600F098FC0028F9D05A
:1043C00010BD70B5184E0D4600243046295DFFF72C
:1043D000EDFF641C285D0028F7D14021304600F035
:1043E00085FC0028F9D070BD00380140000801406C
:1043F000BC000020801000204C4F434B0000000008
:10440000BDD3CAD5CAFDBEDDA3BA00002563000036
:104410000D0A0000C0B6D1C0C3DCC2EBA3BAB4ED34
:10442000CEF3A3A1000000000044004009488047EB
:1044300009480047FEE7FEE7FEE7FEE7FEE7FEE786
:10444000FEE7FEE7FEE7FEE704480549054A064B9E
:10445000704700008D1A000831010008A8110020E3
:10446000A8170020A8130020A813002028490843FB
:1044700028490860704730B50F23C27801780125BC
:10448000F2B1244A126801F1E02102F4E062C2F5BF
:10449000E062120AC2F10404D3404278A240847858
:1044A0001C401443220181F80024007800F01F0111
:1044B0008D404009800000F1E020C0F8005130BD7F
:1044C00001F01F0085404809800000F1E020C0F89D
:1044D000805130BD104A114001430E48001F016059
:1044E00070470C4A121D0029116801D0014300E0F9
:1044F0008143116070474FF0E0210428086903D020
:1045000020F004000861704740F00400FAE7000062
:104510000000FA050CED00E080FFFF1F8F4910B589
:10452000884206D10121042000F049FA002104202C
:104530003BE08B49884206D10121082000F03FFA78
:104540000021082031E08749884206D1012110204E
:1045500000F035FA0021102027E08349884206D177
:104560000121202000F02BFA002120201DE07F49AE
:10457000884206D10121402000F021FA002140208C
:1045800013E07B49884206D10121802000F017FA10
:104590000021802009E0774988420AD18415012151
:1045A000204600F00CFA00212046BDE8104000F043
:1045B00006BA10BD10B50121084600F000FA00212E
:1045C000BDE81040012000F0FAB9F0B5CC78002227
:1045D00004F00F03E40601D58C7823430C784FF0E8
:1045E0000F0C14F0FF0F4FF0010E1BD005680E8862
:1045F0000EFA02F42640A64210D196000CFA06F7F5
:1046000025EA070703FA06F5CE783D43282E02D0A7
:10461000482E02D002E0446100E00461521C082AE6
:10462000E5D305600A88FF2A1CD94468002202F1FC
:1046300008060EFA06F50E882E40AE420ED1960000
:104640000CFA06F7BC4303FA06F7CE783C43282E53
:1046500000D14561CE78482E00D10561521C082A50
:10466000E5D34460F0BD4FF6FF71018002218170F7
:104670000421C17070470246002092680A4200D0AF
:1046800001207047806880B2704702460020D268DF
:104690000A4200D001207047C06880B270470161B3
:1046A0007047416170470AB10161704741617047CD
:1046B000C160704741F480328261816182618169A9
:1046C000806970472C4B10B51A684FF680742240F1
:1046D00042EA00100843186010BD2849C8617047BD
:1046E000F0B5254C002801DAE36900E06368450D68
:1046F0002E0185B2C0F30157B540C0F30342032F2A
:1047000005D0C6020AD503269640B34307E023F03E
:104710007062636823F07063636002E0AB4343F050
:10472000706201B12A43002801DAE261F0BD6260E3
:10473000F0BD10B58A0721F003040F49120F214480
:104740000F238C6893409C438C608B68904003439C
:104750008B6010BD0949C1F8DC00704700080140BA
:10476000000C0140001001400014014000180140FD
:10477000001C0140002001400000014000002042D8
:10478000A548016841F0010101604168A34A114058
:1047900041600168A24A11400160016821F4802152
:1047A0000160416821F4FE0141604FF41F01816006
:1047B000704799490A6822F480320A600A6822F434
:1047C00080220A60B0F5803F07D0B0F5802F03D17A
:1047D000086840F4A02008607047086840F4803002
:1047E000F9E70346002059098B4A01290AD002291A
:1047F0000AD0516A03F01F02012393400B4200D0FC
:10480000012070471168F5E7116AF3E718B5002039
:104810004FF4A06400903120FFF7E3FF0099491C9A
:104820000091A14201D00028F5D03120FFF7D9FF37
:10483000002800D0012018BD774A116821F0F80146
:1048400041EAC00010607047764908607047724BBB
:104850005A68084322F47C1210435860704771492B
:10486000086670476C4A516821F0030101435160AA
:1048700070476948406800F00C007047664A51680C
:1048800021F0F001014351607047634A516821F4FF
:10489000E0610143516070475F4A516821F4605103
:1048A00041EAC000506070475B4A0029517A01D04C
:1048B000014300E08143517270475A49C1F8D80062
:1048C0007047554A516821F4404101435160704797
:1048D0005149002281F8202081F82020012802D0AF
:1048E000042802D1052081F8200070474E49086055
:1048F000704749490A6A02430A6270474A49443983
:104900000860704730B5444A5168484B11F00C01BB
:1049100003D0042901D0082901D0036012E05168B6
:10492000536801F470114FF0020413F4803F04EB5C
:10493000914102D053689B0301D53D4B00E03B4BB6
:104940005943016051680F2303EA1111394B5C5C34
:104950000168E14041605468072505EA14241C5DA4
:1049600021FA04F48460546805EAD4241B5DD9401C
:10497000C1605268032303EA92322E4B1B1F9A5CDC
:10498000B1FBF2F1016130BD234A0029516901D028
:10499000014300E08143516170471F4A002991693A
:1049A00001D0014300E08143916170471A4A002918
:1049B000D16901D0014300E08143D1617047164ABB
:1049C0000029D16801D0014300E08143D1607047E4
:1049D000114A0029116901D0014300E081431161AE
:1049E000704711494039086070470E49C8647047E4
:1049F0000949C87170470848416A41F080714162B5
:104A00007047054A0146002092680A4200D0012002
:104A10007047014988727047001002400000FFF89B
:104A2000FFFFF6FE000042428004424200127A007C
:104A300000093D00C8000020C44910B588420AD1D1
:104A400001218C032046FFF7BAFF2046BDE8104045
:104A50000021FFF7B4BFBE49884202D101214C04B6
:104A600010E0BC49884202D101218C040AE0BA4915
:104A7000884202D10121CC0404E0B84988420AD11D
:104A800001210C052046FFF7A3FF2046BDE810409A
:104A90000021FFF79DBF10BD30B50446008A85B0E8
:104AA0000D464CF6FF710840E98801432182A08938
:104AB0004EF6F3110840A9882A8911436A890243F6
:104AC0001143A181A08A4FF6FF410840A989014303
:104AD000A1826846FFF716FF9C48844201D10398E3
:104AE00000E00298A189090400EBC00101EB00106D
:104AF000296801D5490000E08900B0FBF1F064228B
:104B0000B0FBF2F109010B096FF018056B4300EBE4
:104B10008300A3891D044FF0320306D503EBC000C8
:104B2000B0FBF2F000F0070005E003EB0010B0FB73
:104B3000F2F000F00F000843208105B030BD4FF4C3
:104B40001651016000218180C18001810C224281C7
:104B50008181704710B5028A4FF2FF031A400B881B
:104B60004C8823438C88C9880C4323431343038216
:104B700010BD0021018041808180C18070470029E3
:104B8000818902D041F4005101E021F4005181817A
:104B9000704710B5C1F3421301F01F040121A14079
:104BA000012B07D0022B07D01430002A026805D051
:104BB0000A4304E00C30F8E71030F6E78A4302605D
:104BC00010BD002A828A01D00A4300E08A43828213
:104BD0007047028A22F00F020282028A0A4302828E
:104BE0007047828922F40062828182890A4382812D
:104BF00070470029818902D041F0020101E021F0D3
:104C0000020181817047028A22F020020282028A18
:104C10000A43028270470029018A02D041F4804190
:104C200001E021F4804101827047C1F308018180D5
:104C300070478088C0F308007047818941F0010106
:104C400081817047028BD2B20283028B42EA01213A
:104C500001837047028B02F47F420283028B0A4376
:104C6000028370470029818A02D041F0200101E0CF
:104C700021F02001818270470029818A02D041F011
:104C8000100101E021F01001818270470029818A22
:104C900002D041F0080101E021F008018182704753
:104CA0000029818902D041F4004101E0C1F30E01E5
:104CB000818170470029818A02D041F4006101E0BE
:104CC00021F4006181827047828A22F0040282828C
:104CD000828A0A43828270470029818A02D041F089
:104CE000020101E021F002018182704702460020AA
:104CF00012880A4200D001207047C94301807047E2
:104D000070B501F01F0501260024C1F3421306FA15
:104D100005F2012B0FD0022B0FD0838A4FEA11210D
:104D20000088134206FA01F600EA060001D000B13D
:104D30000124204670BD8389F0E7038AEEE70A0A62
:104D400001219140C94301807047000000380140B3
:104D50000044004000480040004C0040005000402B
:104D6000FD4A116801F03801014311607047FA49AA
:104D70000A6822F008020A600A6802430A60704763
:104D8000F5490A6822F010020A600A6802430A60C4
:104D90007047F148F1494160F14941607047EE4880
:104DA000EE494160EE4941607047EB48016941F0CE
:104DB000800101617047E848016941F080010161AB
:104DC0007047E5490420CA68D20701D00120704726
:104DD000CA68520701D502207047C968C906FBD5C9
:104DE0000320704700B50346FFF7EBFF02E0FFF733
:104DF000E8FF5B1E012803D0002B00D1052000BD79
:104E0000002BF4D1FAE770B505464FF43026304652
:104E1000FFF7E8FF042811D1CF4C206940F00200D1
:104E200020616561206940F0400020613046FFF755
:104E3000D9FF216941F6FD721140216170BD30B585
:104E40004FF430252846FFF7CDFF042810D1C24C7F
:104E5000206940F004002061206940F0400020619A
:104E60002846FFF7BFFF216941F6FB72114021611F
:104E700030BD00B50346FFF7A4FF02E0FFF7A1FF36
:104E80005B1E012803D0002B00D1052000BD002BA4
:104E9000F4D1FAE730B54FF430252846FFF7E9FFA3
:104EA000042810D1AC4C206940F004002061206936
:104EB00040F0400020612846FFF7DBFF216941F602
:104EC000FB721140216130BDA3490020C9698907E7
:104ED00000D50120704770B5A525FFF7F5FF00B19B
:104EE00000254FF430263046FFF77CFF042827D1F9
:104EF000994C9A48A0609A48A060206940F0200030
:104F00002061206940F0400020613046FFF76AFFD1
:104F100041F6EF7604280ED1206941F6DF71084092
:104F20002061206940F0100020618E4805804FF418
:104F30000050FFF757FF052802D021693140216159
:104F400070BDF8B5064600204FF4005C00900D4699
:104F50006046FFF747FF042816D17F4C206940F0D8
:104F60000100206135806046FFF73CFF41F6FE7787
:104F7000042806D1B61C280C009630806046FFF746
:104F800031FF216939402161F8BDF0B506464FF483
:104F900000570D463846FFF725FF04280CD16E4C0C
:104FA000206940F00100206135803846FFF71AFF84
:104FB0002169BA1E11402161F0BDF0B506464FF4DB
:104FC00000570D463846FFF70DFF042813D1624CF9
:104FD0006248A0606248A060206940F01000206133
:104FE00035803846FFF7FEFE052804D0216941F6DA
:104FF000EF7211402161F0BD2DE9F041C043C7B20D
:10500000C0F30726C0F30745040E4FF4005840468E
:10501000FFF7E8FE04283CD1DFF83CC14F49CCF84B
:1050200008104F49CCF80810DCF8101041F01001BE
:10503000CCF81010FF2F07D04A48083007804046B0
:10504000FFF7D0FE04281BD1FF2E07D045480A30B9
:1050500006804046FFF7C6FE042811D1FF2D07D079
:1050600040480C3005804046FFF7BCFE042807D1BD
:10507000FF2C07D03B480E3004804046FFF7B2FEBD
:10508000052806D0DCF8101041F6EF721140CCF87C
:105090001010BDE8F08170B505464FF4302630465B
:1050A000FFF7A0FE042818D12B4C2C48A0602C48F8
:1050B000A060206940F020002061206940F040009D
:1050C00020613046FFF78EFE41F6DF71042805D0DF
:1050D000052802D022690A40226170BD206908407B
:1050E0002061206940F0100020611E480DB10021B0
:1050F00000E0A52101803046FFF774FE0528ECD0C2
:10510000216941F6EF721140216170BDF0B5124C7A
:105110000746124816460D46A0601148A0604FF49D
:10512000005C6046FFF75EFE042814D1206940F061
:105130001000206135430B493D43891C45F0F800C0
:1051400008806046FFF74EFE052804D0216941F62D
:10515000EF7211402161F0BD00200240230167453C
:10516000AB89EFCD00F8FF1F1C48C069800870476D
:105170001A48006A7047194900200968890600D555
:1051800001207047154A0029116901D0014300E050
:1051900081431161704701460020104A012903D064
:1051A000D2680A4203D17047D169C907FBD00120F8
:1051B00070470A49C860704708490420CA68D20786
:1051C00001D001207047CA68520701D502207047FC
:1051D000C968C906FBD503207047000000200240C3
:1051E000424A0029118801D0014300E08143118027
:1051F00070473E48001D018841F010010180704752
:105200003A48001D018821F010010180704737489D
:105210001C30008835491831098840EA0140704740
:1052200000B50246FFF7E5FF3049100C1831088041
:10523000081D02805DF804EBE2E700B50246FFF7C7
:10524000D8FF2A49C2F3034008310880081D0280B4
:105250005DF804EBD4E700B50246FFF7CAFF234927
:10526000100C20310880081D02805DF804EBC7E7B0
:105270001E48103000880007010B1C4814300088BD
:10528000084370471948001D01888906FCD57047FE
:105290001648001D018821F00801018001880907D6
:1052A000FCD570470146114A0020121D12880A429F
:1052B00000D0012070470D49091D0A8882430A80E9
:1052C00070470A49091D0988C2B21140074A12886D
:1052D000024202D009B10120704700207047034903
:1052E000091D0A8882430A80704700000028004098
:1052F000F94910B5884202D10121C41486E0B0F109
:10530000804F09D0F54988420DD101210220FFF7D5
:105310005FFB0021022064E001210846FFF758FBF3
:10532000002101205DE0EE49884206D101210420E0
:10533000FFF74EFB0021042053E0EA49884206D1E2
:1053400001210820FFF744FB0021082049E0E6493D
:10535000884206D101211020FFF73AFB00211020DE
:105360003FE0E249884206D101212020FFF730FBCF
:105370000021202035E0DE49884202D10121441479
:1053800044E0DC49884202D10121CC043EE0DA4904
:10539000884202D101210C0538E0D849884202D167
:1053A00001214C0532E0D649884206D10121402036
:1053B000FFF70EFB0021402013E0D249884206D1BE
:1053C00001218020FFF704FB0021802009E0CE4965
:1053D00088420AD1841501212046FFF7F9FA0021FD
:1053E0002046BDE81040FFF7F3BAC849884202D111
:1053F00001210C040AE0C649884202D101214C0473
:1054000004E0C44988420AD101218C042046FFF7F8
:10541000D6FA2046BDE810400021FFF7D0BA10BDF3
:1054200030B50288AC4CB24DA0420DD0A8420BD092
:10543000B0F1804F08D0A94B984205D0A84B9842B4
:1054400002D0A84B984203D122F070034A881A4335
:10545000A54B984206D0A54B984203D022F4407346
:10546000CA881A4302808A8882850A880285A042F7
:105470000AD0A84208D0A54A904205D0A44A90423A
:1054800002D0A44A904201D1097A01860121818289
:1054900030BD30B5028C22F001020284028C838878
:1054A000048B22F0020224F073050C882C430D8932
:1054B00015434A882A43884DA8420BD08C4DA842F8
:1054C00008D0924DA84205D0914DA84202D0914DEE
:1054D000A8420DD122F008054A8923F440732A43DB
:1054E00022F004058A882A438D891D43CB892B43EA
:1054F00083800483C9888186028430BD70B5028CA4
:1055000022F010020284028C8388048B0D8824F41C
:10551000E6464FF6FF7404EA052535430E8922F06E
:10552000200204EA061616434A8804EA02123243AD
:10553000694EB04202D06E4EB04215D122F08006C4
:105540004A8923F4406304EA0212324322F04006FF
:105550008A8804EA021232438E8904EA86061E43D0
:10556000CB8904EA8303334383800583C988018799
:10557000028470BD70B5028C22F480720284028CA9
:105580008388848B0D8824F0730425430E894FF69D
:10559000FF7422F4007204EA062616434A8804EADD
:1055A000022232434C4EB04202D0514EB04215D18D
:1055B00022F400664A8923F4405304EA022232436B
:1055C00022F480668A8804EA022232438E8904EA41
:1055D00006161E43CB8904EA031333438380858375
:1055E000C9888187028470BD70B5028C22F4805214
:1055F0000284058C8288838B0C8823F4E6464FF660
:10560000FF7303EA0424344325F400560D8903EAAA
:10561000053535434E8803EA06362E432E4DA84203
:1056200002D0334DA84205D122F480458A8903EA8D
:1056300082122A4382808483C988A0F8401006849D
:1056400070BD828B22F440628283828B4FF6FF739F
:1056500003EA01210A4382837047828B22F00C0205
:105660008283828B0A4382837047028B22F44062DA
:105670000283028B4FF6FF7303EA01210A43028380
:105680007047F0B5048C24F010040484078B048C5C
:105690004FF6FF7527F4734705EA03333B4305EAEA
:1056A00002221A430C4B05EA011698420ED0104B09
:1056B00098420BD0B0F1804F08D0084B984205D0EB
:1056C000074B984202D0074B984225D124F0200185
:1056D000314341F0100124E0002C0140000400405F
:1056E00000080040000C0040001000400014004082
:1056F00000340140004C0140005001400054014082
:1057000000180040001C0040002000400040014004
:10571000004401400048014024F0A0030B4343F043
:10572000100102830184F0BD028B22F00C0202837F
:10573000028B0A430283704770B5048C24F0010485
:105740000484058B048C4FF6FF7606EA031313439B
:1057500025F0F305F84A2B4390420ED0F74A9042C9
:105760000BD0B0F1804F08D0F54A904205D0F54AF1
:10577000904202D0F44A904202D124F0020201E0A9
:1057800024F00A020A4342F001010383018470BD40
:105790002DE9F84F0D4604460888E74FDFF89CC313
:1057A000DFF89C83DFF89C934988AA882B894FF007
:1057B000804A48B304282FD04FF6FF760828934636
:1057C00032D0208C9E4620F480502084A38B208CE5
:1057D00006EA0132009223F4734306EA0B221A43CD
:1057E00006EA0E331343BC420AD0644508D0544540
:1057F00006D0444504D04C4502D0D34A944242D10D
:1058000020F40050009940E02046FFF795FFE9881A
:105810002046BDE8F84F87E72046FFF732FFE988CA
:105820002046BDE8F84F20E7208C20F480702084CB
:10583000B4F81CE0208C06EA031306EA01222EF0DD
:10584000F30E43EA0B0343EA0E030092BC420AD074
:10585000644508D0544506D0444504D04C4502D098
:10586000B94A944203D120F40070009901E020F479
:105870002060084340F48070A3832084E988204698
:10588000BDE8F84FE9E620F40240084340F48050B8
:10589000A3832084E9882046BDE8F84FD1E62DE9AE
:1058A000F0410C46002649880746012501B9022629
:1058B000A288012A00D102252088238900283846A1
:1058C00010D0FFF7DEFEE1883846FFF7CEFE2389D1
:1058D0002A4631463846FFF72FFFE1883846BDE8B3
:1058E000F04121E7FFF728FFE1883846FFF71CFF6A
:1058F00023892A4631463846FFF7C3FEE1883846F9
:10590000BDE8F041B1E610B50A884B88CC881A434F
:105910008B8823431A430B891A434B8989891A437D
:105920000A43A0F8442010BD4FF6FF71818000218A
:105930000180C18041800172704700210180418057
:105940008180C180018141818181C18170470021B5
:105950000180418001228280C18001817047002145
:10596000018041808180C1800181418181817047B6
:105970000029018802D041F0010101E021F001017C
:1059800001807047002930F8441F02D041F40041E3
:1059900001E0C1F30E0101807047002A828901D025
:1059A0000A4300E08A438281704781827047114335
:1059B000A0F848107047002A828901D00A4300E00D
:1059C0008A4382817047018921F007010181704774
:1059D000028922F070020A430281704700B5034633
:1059E000FFF7F6FF188940F00700188100BD70B579
:1059F00016460D46602904464FF0010231460AD092
:105A0000FFF79AFE29462046FFF7E2FF208940F083
:105A10000700208170BDFFF734FEF3E730B504893D
:105A20004FF6FF7505EA03231343E4B20B43234308
:105A3000038130BD10B50446FFF7F0FF208940F028
:105A40007700208110BD10B50446FFF7E7FF2089DD
:105A500040F48040208110BD018582827047028819
:105A600022F070020A430280704770B50589048BEA
:105A7000068C25F007050D434FF6FC410C4040F223
:105A800001110C434FF6FF7101EA031126F02206C3
:105A90001143314305810483018470BD028B22F0E0
:105AA00070020A4302837047028B4FF6FF7322F4A1
:105AB000E04203EA0121114301837047828B22F007
:105AC00070020A4382837047828B4FF6FF7322F481
:105AD000E04203EA012111438183704700290188D4
